{
  "_format": "hh-sol-artifact-1",
  "contractName": "AC55idOnDemand",
  "sourceName": "contracts/Minting.sol",
  "abi": [
    {
      "inputs": [],
      "stateMutability": "nonpayable",
      "type": "constructor"
    },
    {
      "anonymous": false,
      "inputs": [
        {
          "indexed": true,
          "internalType": "address",
          "name": "account",
          "type": "address"
        },
        {
          "indexed": true,
          "internalType": "address",
          "name": "operator",
          "type": "address"
        },
        {
          "indexed": false,
          "internalType": "bool",
          "name": "approved",
          "type": "bool"
        }
      ],
      "name": "ApprovalForAll",
      "type": "event"
    },
    {
      "anonymous": false,
      "inputs": [
        {
          "indexed": false,
          "internalType": "uint8",
          "name": "version",
          "type": "uint8"
        }
      ],
      "name": "Initialized",
      "type": "event"
    },
    {
      "anonymous": false,
      "inputs": [
        {
          "indexed": true,
          "internalType": "address",
          "name": "previousOwner",
          "type": "address"
        },
        {
          "indexed": true,
          "internalType": "address",
          "name": "newOwner",
          "type": "address"
        }
      ],
      "name": "OwnershipTransferred",
      "type": "event"
    },
    {
      "anonymous": false,
      "inputs": [
        {
          "indexed": true,
          "internalType": "address",
          "name": "operator",
          "type": "address"
        },
        {
          "indexed": true,
          "internalType": "address",
          "name": "from",
          "type": "address"
        },
        {
          "indexed": true,
          "internalType": "address",
          "name": "to",
          "type": "address"
        },
        {
          "indexed": false,
          "internalType": "uint256[]",
          "name": "ids",
          "type": "uint256[]"
        },
        {
          "indexed": false,
          "internalType": "uint256[]",
          "name": "values",
          "type": "uint256[]"
        }
      ],
      "name": "TransferBatch",
      "type": "event"
    },
    {
      "anonymous": false,
      "inputs": [
        {
          "indexed": true,
          "internalType": "address",
          "name": "operator",
          "type": "address"
        },
        {
          "indexed": true,
          "internalType": "address",
          "name": "from",
          "type": "address"
        },
        {
          "indexed": true,
          "internalType": "address",
          "name": "to",
          "type": "address"
        },
        {
          "indexed": false,
          "internalType": "uint256",
          "name": "id",
          "type": "uint256"
        },
        {
          "indexed": false,
          "internalType": "uint256",
          "name": "value",
          "type": "uint256"
        }
      ],
      "name": "TransferSingle",
      "type": "event"
    },
    {
      "anonymous": false,
      "inputs": [
        {
          "indexed": false,
          "internalType": "string",
          "name": "value",
          "type": "string"
        },
        {
          "indexed": true,
          "internalType": "uint256",
          "name": "id",
          "type": "uint256"
        }
      ],
      "name": "URI",
      "type": "event"
    },
    {
      "inputs": [
        {
          "internalType": "address",
          "name": "account",
          "type": "address"
        },
        {
          "internalType": "uint256",
          "name": "id",
          "type": "uint256"
        }
      ],
      "name": "balanceOf",
      "outputs": [
        {
          "internalType": "uint256",
          "name": "",
          "type": "uint256"
        }
      ],
      "stateMutability": "view",
      "type": "function"
    },
    {
      "inputs": [
        {
          "internalType": "address[]",
          "name": "accounts",
          "type": "address[]"
        },
        {
          "internalType": "uint256[]",
          "name": "ids",
          "type": "uint256[]"
        }
      ],
      "name": "balanceOfBatch",
      "outputs": [
        {
          "internalType": "uint256[]",
          "name": "",
          "type": "uint256[]"
        }
      ],
      "stateMutability": "view",
      "type": "function"
    },
    {
      "inputs": [
        {
          "internalType": "uint256",
          "name": "",
          "type": "uint256"
        },
        {
          "internalType": "address",
          "name": "",
          "type": "address"
        }
      ],
      "name": "buyers",
      "outputs": [
        {
          "internalType": "uint256",
          "name": "",
          "type": "uint256"
        }
      ],
      "stateMutability": "view",
      "type": "function"
    },
    {
      "inputs": [
        {
          "internalType": "uint256",
          "name": "_NftId",
          "type": "uint256"
        },
        {
          "internalType": "address",
          "name": "buyer_addr",
          "type": "address"
        }
      ],
      "name": "getTrackLink",
      "outputs": [
        {
          "internalType": "string",
          "name": "",
          "type": "string"
        }
      ],
      "stateMutability": "view",
      "type": "function"
    },
    {
      "inputs": [],
      "name": "initialize",
      "outputs": [],
      "stateMutability": "nonpayable",
      "type": "function"
    },
    {
      "inputs": [
        {
          "internalType": "address",
          "name": "account",
          "type": "address"
        },
        {
          "internalType": "address",
          "name": "operator",
          "type": "address"
        }
      ],
      "name": "isApprovedForAll",
      "outputs": [
        {
          "internalType": "bool",
          "name": "",
          "type": "bool"
        }
      ],
      "stateMutability": "view",
      "type": "function"
    },
    {
      "inputs": [
        {
          "internalType": "uint256",
          "name": "amount",
          "type": "uint256"
        },
        {
          "internalType": "uint256",
          "name": "price",
          "type": "uint256"
        },
        {
          "internalType": "uint256",
          "name": "priceusd",
          "type": "uint256"
        },
        {
          "internalType": "string",
          "name": "trackLink",
          "type": "string"
        }
      ],
      "name": "mint",
      "outputs": [],
      "stateMutability": "nonpayable",
      "type": "function"
    },
    {
      "inputs": [],
      "name": "name",
      "outputs": [
        {
          "internalType": "string",
          "name": "",
          "type": "string"
        }
      ],
      "stateMutability": "view",
      "type": "function"
    },
    {
      "inputs": [],
      "name": "nftId",
      "outputs": [
        {
          "internalType": "uint256",
          "name": "",
          "type": "uint256"
        }
      ],
      "stateMutability": "view",
      "type": "function"
    },
    {
      "inputs": [
        {
          "internalType": "uint256",
          "name": "",
          "type": "uint256"
        }
      ],
      "name": "nfts",
      "outputs": [
        {
          "internalType": "uint256",
          "name": "_id",
          "type": "uint256"
        },
        {
          "internalType": "uint256",
          "name": "_price",
          "type": "uint256"
        },
        {
          "internalType": "uint256",
          "name": "_priceUSD",
          "type": "uint256"
        },
        {
          "internalType": "uint256",
          "name": "_num_records",
          "type": "uint256"
        },
        {
          "internalType": "uint256",
          "name": "_purchaseValue",
          "type": "uint256"
        }
      ],
      "stateMutability": "view",
      "type": "function"
    },
    {
      "inputs": [],
      "name": "owner",
      "outputs": [
        {
          "internalType": "address",
          "name": "",
          "type": "address"
        }
      ],
      "stateMutability": "view",
      "type": "function"
    },
    {
      "inputs": [
        {
          "internalType": "uint256",
          "name": "",
          "type": "uint256"
        },
        {
          "internalType": "address",
          "name": "",
          "type": "address"
        }
      ],
      "name": "payers",
      "outputs": [
        {
          "internalType": "uint256",
          "name": "",
          "type": "uint256"
        }
      ],
      "stateMutability": "view",
      "type": "function"
    },
    {
      "inputs": [
        {
          "internalType": "uint256",
          "name": "id",
          "type": "uint256"
        }
      ],
      "name": "payment",
      "outputs": [],
      "stateMutability": "payable",
      "type": "function"
    },
    {
      "inputs": [],
      "name": "renounceOwnership",
      "outputs": [],
      "stateMutability": "nonpayable",
      "type": "function"
    },
    {
      "inputs": [
        {
          "internalType": "address",
          "name": "from",
          "type": "address"
        },
        {
          "internalType": "address",
          "name": "to",
          "type": "address"
        },
        {
          "internalType": "uint256[]",
          "name": "ids",
          "type": "uint256[]"
        },
        {
          "internalType": "uint256[]",
          "name": "amounts",
          "type": "uint256[]"
        },
        {
          "internalType": "bytes",
          "name": "data",
          "type": "bytes"
        }
      ],
      "name": "safeBatchTransferFrom",
      "outputs": [],
      "stateMutability": "nonpayable",
      "type": "function"
    },
    {
      "inputs": [
        {
          "internalType": "address",
          "name": "from",
          "type": "address"
        },
        {
          "internalType": "address",
          "name": "to",
          "type": "address"
        },
        {
          "internalType": "uint256",
          "name": "id",
          "type": "uint256"
        },
        {
          "internalType": "uint256",
          "name": "amount",
          "type": "uint256"
        },
        {
          "internalType": "bytes",
          "name": "data",
          "type": "bytes"
        }
      ],
      "name": "safeTransferFrom",
      "outputs": [],
      "stateMutability": "nonpayable",
      "type": "function"
    },
    {
      "inputs": [
        {
          "internalType": "address",
          "name": "operator",
          "type": "address"
        },
        {
          "internalType": "bool",
          "name": "approved",
          "type": "bool"
        }
      ],
      "name": "setApprovalForAll",
      "outputs": [],
      "stateMutability": "nonpayable",
      "type": "function"
    },
    {
      "inputs": [
        {
          "internalType": "address",
          "name": "buyer_addr",
          "type": "address"
        },
        {
          "internalType": "uint256",
          "name": "id",
          "type": "uint256"
        }
      ],
      "name": "setPurchased",
      "outputs": [],
      "stateMutability": "nonpayable",
      "type": "function"
    },
    {
      "inputs": [
        {
          "internalType": "string",
          "name": "newuri",
          "type": "string"
        }
      ],
      "name": "setURI",
      "outputs": [],
      "stateMutability": "nonpayable",
      "type": "function"
    },
    {
      "inputs": [
        {
          "internalType": "bytes4",
          "name": "interfaceId",
          "type": "bytes4"
        }
      ],
      "name": "supportsInterface",
      "outputs": [
        {
          "internalType": "bool",
          "name": "",
          "type": "bool"
        }
      ],
      "stateMutability": "view",
      "type": "function"
    },
    {
      "inputs": [],
      "name": "symbol",
      "outputs": [
        {
          "internalType": "string",
          "name": "",
          "type": "string"
        }
      ],
      "stateMutability": "view",
      "type": "function"
    },
    {
      "inputs": [
        {
          "internalType": "uint256",
          "name": "id",
          "type": "uint256"
        },
        {
          "internalType": "address",
          "name": "_To",
          "type": "address"
        }
      ],
      "name": "transferNFT",
      "outputs": [],
      "stateMutability": "nonpayable",
      "type": "function"
    },
    {
      "inputs": [
        {
          "internalType": "address",
          "name": "newOwner",
          "type": "address"
        }
      ],
      "name": "transferOwnership",
      "outputs": [],
      "stateMutability": "nonpayable",
      "type": "function"
    },
    {
      "inputs": [
        {
          "internalType": "uint256",
          "name": "_id",
          "type": "uint256"
        }
      ],
      "name": "uri",
      "outputs": [
        {
          "internalType": "string",
          "name": "",
          "type": "string"
        }
      ],
      "stateMutability": "view",
      "type": "function"
    }
  ],
  "bytecode": "0x608060405234801561001057600080fd5b506123a3806100206000396000f3fe60806040526004361061014a5760003560e01c8063715018a6116100b6578063a22cb4651161006f578063a22cb46514610407578063c6bc518214610427578063da45f6891461043d578063e985e9c514610475578063f242432a146104be578063f2fde38b146104de57600080fd5b8063715018a61461036d5780638129fc1c146103825780638b3c99e3146103975780638da5cb5b146103aa5780639036c050146103d257806395d89b41146103f257600080fd5b8063265aa62111610108578063265aa621146102365780632eb2c2d6146102a8578063388fc40c146102c85780633c5af02e146103005780634e1273f41461032057806357e7aba71461034d57600080fd5b8062fdd58e1461014f57806301ffc9a71461018257806302fe5305146101b257806306fdde03146101d45780630e89341c146101f657806319b7702b14610216575b600080fd5b34801561015b57600080fd5b5061016f61016a366004611c0c565b6104fe565b6040519081526020015b60405180910390f35b34801561018e57600080fd5b506101a261019d366004611d07565b610596565b6040519015158152602001610179565b3480156101be57600080fd5b506101d26101cd366004611d41565b6105e8565b005b3480156101e057600080fd5b506101e96105fc565b6040516101799190611fab565b34801561020257600080fd5b506101e9610211366004611d76565b61068a565b34801561022257600080fd5b506101e9610231366004611d8f565b6106ed565b34801561024257600080fd5b50610280610251366004611d76565b60cd60205260009081526040902080546001820154600283015460038401546004909401549293919290919085565b604080519586526020860194909452928401919091526060830152608082015260a001610179565b3480156102b457600080fd5b506101d26102c3366004611ac1565b6107fe565b3480156102d457600080fd5b5061016f6102e3366004611d8f565b60cf60209081526000928352604080842090915290825290205481565b34801561030c57600080fd5b506101d261031b366004611c0c565b61084a565b34801561032c57600080fd5b5061034061033b366004611c36565b610912565b6040516101799190611f6a565b34801561035957600080fd5b506101d2610368366004611db2565b610a3c565b34801561037957600080fd5b506101d2610b99565b34801561038e57600080fd5b506101d2610bad565b6101d26103a5366004611d76565b610d83565b3480156103b657600080fd5b506097546040516001600160a01b039091168152602001610179565b3480156103de57600080fd5b506101d26103ed366004611d8f565b610de4565b3480156103fe57600080fd5b506101e9610e1c565b34801561041357600080fd5b506101d2610422366004611bd0565b610e29565b34801561043357600080fd5b5061016f60cb5481565b34801561044957600080fd5b5061016f610458366004611d8f565b60d060209081526000928352604080842090915290825290205481565b34801561048157600080fd5b506101a2610490366004611a8e565b6001600160a01b03918216600090815260666020908152604080832093909416825291909152205460ff1690565b3480156104ca57600080fd5b506101d26104d9366004611b6b565b610e34565b3480156104ea57600080fd5b506101d26104f9366004611a73565b610e79565b60006001600160a01b03831661056e5760405162461bcd60e51b815260206004820152602a60248201527f455243313135353a2061646472657373207a65726f206973206e6f742061207660448201526930b634b21037bbb732b960b11b60648201526084015b60405180910390fd5b5060009081526065602090815260408083206001600160a01b03949094168352929052205490565b60006001600160e01b03198216636cdb3d1360e11b14806105c757506001600160e01b031982166303a24d0760e21b145b806105e257506301ffc9a760e01b6001600160e01b03198316145b92915050565b6105f0610eef565b6105f981610f49565b50565b60c98054610609906121c2565b80601f0160208091040260200160405190810160405280929190818152602001828054610635906121c2565b80156106825780601f1061065757610100808354040283529160200191610682565b820191906000526020600020905b81548152906001019060200180831161066557829003601f168201915b505050505081565b6040805180820190915260208082527f68747470733a2f2f6170692e6163353569642e636f6d2f6f6e64656d616e642f91015260606106c882610f5c565b6040516020016106d89190611e73565b60405160208183030381529060405292915050565b600082815260cf602090815260408083206001600160a01b038516845290915290205460609061075f5760405162461bcd60e51b815260206004820152601c60248201527f55736572206469646e7420626f75676874207468697320747261636b000000006044820152606401610565565b600083815260ce602052604090208054610778906121c2565b80601f01602080910402602001604051908101604052809291908181526020018280546107a4906121c2565b80156107f15780601f106107c6576101008083540402835291602001916107f1565b820191906000526020600020905b8154815290600101906020018083116107d457829003601f168201915b5050505050905092915050565b6001600160a01b03851633148061081a575061081a8533610490565b6108365760405162461bcd60e51b815260040161056590611fbe565b6108438585858585611062565b5050505050565b610852610eef565b600081815260d0602090815260408083206001600160a01b03861684529091529020546108c15760405162461bcd60e51b815260206004820152601c60248201527f55736572206469646e7420626f75676874207468697320747261636b000000006044820152606401610565565b600081815260cd60205260409020600401546108de906001611242565b600091825260cd6020908152604080842060040183905560cf82528084206001600160a01b03909516845293905291902055565b606081518351146109775760405162461bcd60e51b815260206004820152602960248201527f455243313135353a206163636f756e747320616e6420696473206c656e677468604482015268040dad2e6dac2e8c6d60bb1b6064820152608401610565565b6000835167ffffffffffffffff8111156109935761099361229b565b6040519080825280602002602001820160405280156109bc578160200160208202803683370190505b50905060005b8451811015610a3457610a078582815181106109e0576109e0612285565b60200260200101518583815181106109fa576109fa612285565b60200260200101516104fe565b828281518110610a1957610a19612285565b6020908102919091010152610a2d8161222a565b90506109c2565b509392505050565b610a44610eef565b60008411610a945760405162461bcd60e51b815260206004820152601e60248201527f4d696e696d756d6e207175616e7469747920616c6c6f776564206973203100006044820152606401610565565b6113898410610ae55760405162461bcd60e51b815260206004820181905260248201527f4d6178696d756d207175616e7469747920616c6c6f77656420697320353030306044820152606401610565565b60cb54610af3906001611242565b60cb818155600082815260cd6020526040808220938455600190930186905581548152828120600201859055905481522060030154610b329085611242565b60cb8054600090815260cd6020908152604080832060030194909455825482528382206004018290559154815260ce8252919091208251610b75928401906118d3565b50610b933360cb548660405180602001604052806000815250611255565b50505050565b610ba1610eef565b610bab600061136b565b565b600054610100900460ff1615808015610bcd5750600054600160ff909116105b80610be75750303b158015610be7575060005460ff166001145b610c4a5760405162461bcd60e51b815260206004820152602e60248201527f496e697469616c697a61626c653a20636f6e747261637420697320616c72656160448201526d191e481a5b9a5d1a585b1a5e995960921b6064820152608401610565565b6000805460ff191660011790558015610c6d576000805461ff0019166101001790555b610cab6040518060400160405280602081526020017f68747470733a2f2f6170692e6163353569642e636f6d2f6f6e64656d616e642f8152506113bd565b610cb36113ed565b60cc80546001600160a01b03191673fd046d678588e3a0b714bf1b1d0d22c8703fd66617905560408051808201909152600e8082526d1050cd4d525113db91195b585b9960921b6020909201918252610d0e9160c9916118d3565b50604080518082019091526004808252631050d25160e21b6020909201918252610d3a9160ca916118d3565b5080156105f9576000805461ff0019169055604051600181527f7f26b83ff96e1f2b6a682f133852f6798a09c465da95921460cefb38474024989060200160405180910390a150565b600081815260d06020908152604080832033845290915280822034908190559051909173821fc28a7f932fcedacd44627810379ba49d135691829184156108fc02918591818181858888f19350505050158015610b93573d6000803e3d6000fd5b610dec610eef565b60cc54604080516020810190915260008152610e18916001600160a01b0316908390859060019061141d565b5050565b60ca8054610609906121c2565b610e1833838361154b565b6001600160a01b038516331480610e505750610e508533610490565b610e6c5760405162461bcd60e51b815260040161056590611fbe565b610843858585858561141d565b610e81610eef565b6001600160a01b038116610ee65760405162461bcd60e51b815260206004820152602660248201527f4f776e61626c653a206e6577206f776e657220697320746865207a65726f206160448201526564647265737360d01b6064820152608401610565565b6105f98161136b565b6097546001600160a01b03163314610bab5760405162461bcd60e51b815260206004820181905260248201527f4f776e61626c653a2063616c6c6572206973206e6f7420746865206f776e65726044820152606401610565565b8051610e189060679060208401906118d3565b606081610f805750506040805180820190915260018152600360fc1b602082015290565b8160005b8115610faa5780610f948161222a565b9150610fa39050600a8361216b565b9150610f84565b60008167ffffffffffffffff811115610fc557610fc561229b565b6040519080825280601f01601f191660200182016040528015610fef576020820181803683370190505b5090505b841561105a5761100460018361217f565b9150611011600a86612245565b61101c906030612153565b60f81b81838151811061103157611031612285565b60200101906001600160f81b031916908160001a905350611053600a8661216b565b9450610ff3565b949350505050565b81518351146110c45760405162461bcd60e51b815260206004820152602860248201527f455243313135353a2069647320616e6420616d6f756e7473206c656e677468206044820152670dad2e6dac2e8c6d60c31b6064820152608401610565565b6001600160a01b0384166110ea5760405162461bcd60e51b815260040161056590612055565b3360005b84518110156111d457600085828151811061110b5761110b612285565b60200260200101519050600085838151811061112957611129612285565b60209081029190910181015160008481526065835260408082206001600160a01b038e16835290935291909120549091508181101561117a5760405162461bcd60e51b81526004016105659061209a565b60008381526065602090815260408083206001600160a01b038e8116855292528083208585039055908b168252812080548492906111b9908490612153565b92505081905550505050806111cd9061222a565b90506110ee565b50846001600160a01b0316866001600160a01b0316826001600160a01b03167f4a39dc06d4c0dbc64b70af90fd698a233a518aa5d07e595d983b8c0526c8f7fb8787604051611224929190611f7d565b60405180910390a461123a81878787878761162c565b505050505050565b600061124e8284612153565b9392505050565b6001600160a01b0384166112b55760405162461bcd60e51b815260206004820152602160248201527f455243313135353a206d696e7420746f20746865207a65726f206164647265736044820152607360f81b6064820152608401610565565b3360006112c185611797565b905060006112ce85611797565b905060008681526065602090815260408083206001600160a01b038b16845290915281208054879290611302908490612153565b909155505060408051878152602081018790526001600160a01b03808a1692600092918716917fc3d58168c5ae7397731d063d5bbf3d657854427343f4c083240f7aacaa2d0f62910160405180910390a4611362836000898989896117e2565b50505050505050565b609780546001600160a01b038381166001600160a01b0319831681179093556040519116919082907f8be0079c531659141344cd1fd0a4f28419497f9722a3daafe3b4186f6b6457e090600090a35050565b600054610100900460ff166113e45760405162461bcd60e51b8152600401610565906120e4565b6105f9816118ac565b600054610100900460ff166114145760405162461bcd60e51b8152600401610565906120e4565b610bab3361136b565b6001600160a01b0384166114435760405162461bcd60e51b815260040161056590612055565b33600061144f85611797565b9050600061145c85611797565b905060008681526065602090815260408083206001600160a01b038c168452909152902054858110156114a15760405162461bcd60e51b81526004016105659061209a565b60008781526065602090815260408083206001600160a01b038d8116855292528083208985039055908a168252812080548892906114e0908490612153565b909155505060408051888152602081018890526001600160a01b03808b16928c821692918816917fc3d58168c5ae7397731d063d5bbf3d657854427343f4c083240f7aacaa2d0f62910160405180910390a4611540848a8a8a8a8a6117e2565b505050505050505050565b816001600160a01b0316836001600160a01b031614156115bf5760405162461bcd60e51b815260206004820152602960248201527f455243313135353a2073657474696e6720617070726f76616c20737461747573604482015268103337b91039b2b63360b91b6064820152608401610565565b6001600160a01b03838116600081815260666020908152604080832094871680845294825291829020805460ff191686151590811790915591519182527f17307eab39ab6107e8899845ad3d59bd9653f200f220920489ca2b5937696c31910160405180910390a3505050565b6001600160a01b0384163b1561123a5760405163bc197c8160e01b81526001600160a01b0385169063bc197c81906116709089908990889088908890600401611ec7565b602060405180830381600087803b15801561168a57600080fd5b505af19250505080156116ba575060408051601f3d908101601f191682019092526116b791810190611d24565b60015b611767576116c66122b1565b806308c379a0141561170057506116db6122cd565b806116e65750611702565b8060405162461bcd60e51b81526004016105659190611fab565b505b60405162461bcd60e51b815260206004820152603460248201527f455243313135353a207472616e7366657220746f206e6f6e20455243313135356044820152732932b1b2b4bb32b91034b6b83632b6b2b73a32b960611b6064820152608401610565565b6001600160e01b0319811663bc197c8160e01b146113625760405162461bcd60e51b81526004016105659061200d565b604080516001808252818301909252606091600091906020808301908036833701905050905082816000815181106117d1576117d1612285565b602090810291909101015292915050565b6001600160a01b0384163b1561123a5760405163f23a6e6160e01b81526001600160a01b0385169063f23a6e61906118269089908990889088908890600401611f25565b602060405180830381600087803b15801561184057600080fd5b505af1925050508015611870575060408051601f3d908101601f1916820190925261186d91810190611d24565b60015b61187c576116c66122b1565b6001600160e01b0319811663f23a6e6160e01b146113625760405162461bcd60e51b81526004016105659061200d565b600054610100900460ff166105f05760405162461bcd60e51b8152600401610565906120e4565b8280546118df906121c2565b90600052602060002090601f0160209004810192826119015760008555611947565b82601f1061191a57805160ff1916838001178555611947565b82800160010185558215611947579182015b8281111561194757825182559160200191906001019061192c565b50611953929150611957565b5090565b5b808211156119535760008155600101611958565b80356001600160a01b038116811461198357600080fd5b919050565b600082601f83011261199957600080fd5b813560206119a68261212f565b6040516119b382826121fd565b8381528281019150858301600585901b870184018810156119d357600080fd5b60005b858110156119f2578135845292840192908401906001016119d6565b5090979650505050505050565b600082601f830112611a1057600080fd5b813567ffffffffffffffff811115611a2a57611a2a61229b565b604051611a41601f8301601f1916602001826121fd565b818152846020838601011115611a5657600080fd5b816020850160208301376000918101602001919091529392505050565b600060208284031215611a8557600080fd5b61124e8261196c565b60008060408385031215611aa157600080fd5b611aaa8361196c565b9150611ab86020840161196c565b90509250929050565b600080600080600060a08688031215611ad957600080fd5b611ae28661196c565b9450611af06020870161196c565b9350604086013567ffffffffffffffff80821115611b0d57600080fd5b611b1989838a01611988565b94506060880135915080821115611b2f57600080fd5b611b3b89838a01611988565b93506080880135915080821115611b5157600080fd5b50611b5e888289016119ff565b9150509295509295909350565b600080600080600060a08688031215611b8357600080fd5b611b8c8661196c565b9450611b9a6020870161196c565b93506040860135925060608601359150608086013567ffffffffffffffff811115611bc457600080fd5b611b5e888289016119ff565b60008060408385031215611be357600080fd5b611bec8361196c565b915060208301358015158114611c0157600080fd5b809150509250929050565b60008060408385031215611c1f57600080fd5b611c288361196c565b946020939093013593505050565b60008060408385031215611c4957600080fd5b823567ffffffffffffffff80821115611c6157600080fd5b818501915085601f830112611c7557600080fd5b81356020611c828261212f565b604051611c8f82826121fd565b8381528281019150858301600585901b870184018b1015611caf57600080fd5b600096505b84871015611cd957611cc58161196c565b835260019690960195918301918301611cb4565b5096505086013592505080821115611cf057600080fd5b50611cfd85828601611988565b9150509250929050565b600060208284031215611d1957600080fd5b813561124e81612357565b600060208284031215611d3657600080fd5b815161124e81612357565b600060208284031215611d5357600080fd5b813567ffffffffffffffff811115611d6a57600080fd5b61105a848285016119ff565b600060208284031215611d8857600080fd5b5035919050565b60008060408385031215611da257600080fd5b82359150611ab86020840161196c565b60008060008060808587031215611dc857600080fd5b843593506020850135925060408501359150606085013567ffffffffffffffff811115611df457600080fd5b611e00878288016119ff565b91505092959194509250565b600081518084526020808501945080840160005b83811015611e3c57815187529582019590820190600101611e20565b509495945050505050565b60008151808452611e5f816020860160208601612196565b601f01601f19169290920160200192915050565b7f68747470733a2f2f6170692e6163353569642e636f6d2f6f6e64656d616e642f815260008251611eab816020850160208701612196565b64173539b7b760d91b6020939091019283015250602501919050565b6001600160a01b0386811682528516602082015260a060408201819052600090611ef390830186611e0c565b8281036060840152611f058186611e0c565b90508281036080840152611f198185611e47565b98975050505050505050565b6001600160a01b03868116825285166020820152604081018490526060810183905260a060808201819052600090611f5f90830184611e47565b979650505050505050565b60208152600061124e6020830184611e0c565b604081526000611f906040830185611e0c565b8281036020840152611fa28185611e0c565b95945050505050565b60208152600061124e6020830184611e47565b6020808252602f908201527f455243313135353a2063616c6c6572206973206e6f7420746f6b656e206f776e60408201526e195c881b9bdc88185c1c1c9bdd9959608a1b606082015260800190565b60208082526028908201527f455243313135353a204552433131353552656365697665722072656a656374656040820152676420746f6b656e7360c01b606082015260800190565b60208082526025908201527f455243313135353a207472616e7366657220746f20746865207a65726f206164604082015264647265737360d81b606082015260800190565b6020808252602a908201527f455243313135353a20696e73756666696369656e742062616c616e636520666f60408201526939103a3930b739b332b960b11b606082015260800190565b6020808252602b908201527f496e697469616c697a61626c653a20636f6e7472616374206973206e6f74206960408201526a6e697469616c697a696e6760a81b606082015260800190565b600067ffffffffffffffff8211156121495761214961229b565b5060051b60200190565b6000821982111561216657612166612259565b500190565b60008261217a5761217a61226f565b500490565b60008282101561219157612191612259565b500390565b60005b838110156121b1578181015183820152602001612199565b83811115610b935750506000910152565b600181811c908216806121d657607f821691505b602082108114156121f757634e487b7160e01b600052602260045260246000fd5b50919050565b601f8201601f1916810167ffffffffffffffff811182821017156122235761222361229b565b6040525050565b600060001982141561223e5761223e612259565b5060010190565b6000826122545761225461226f565b500690565b634e487b7160e01b600052601160045260246000fd5b634e487b7160e01b600052601260045260246000fd5b634e487b7160e01b600052603260045260246000fd5b634e487b7160e01b600052604160045260246000fd5b600060033d11156122ca5760046000803e5060005160e01c5b90565b600060443d10156122db5790565b6040516003193d81016004833e81513d67ffffffffffffffff816024840111818411171561230b57505050505090565b82850191508151818111156123235750505050505090565b843d870101602082850101111561233d5750505050505090565b61234c602082860101876121fd565b509095945050505050565b6001600160e01b0319811681146105f957600080fdfea26469706673582212207480db536e4edd652ce594d5ddc5d81c9b1c9ab5bf87ecd6165a30b4c8fdefc364736f6c63430008070033",
  "linkReferences": {},
  "deployedLinkReferences": {}
}